:020000040000FA
:04000000A8EF30F045
:106110000F0EC16E000E956E12008C84080E296E53
:10612000CA0EE82EFED7292EFCD78C9412008C8044
:10613000080E296ECA0EE82EFED7292EFCD78C90A9
:10614000080E296ECA0EE82EFED7292EFCD71200A3
:10615000760EF66E610EF76E000EF86E00EE01F030
:1061600010EE28F00900F5CFEEFFE550E150FAE11E
:106170000001F6EF30F077001400B300B600D40051
:10618000E600E7003400F700F600FC006000DA00EB
:10619000F2006600B600BE00E000FE00F600000E51
:1061A000306E000E2F6E2FC02CF02AC02DF02BC0A9
:1061B0002EF02C2A03D02E342E322D322C2EFBD74B
:1061C000010E2D162D468C502D18FD0B2D188C6EA2
:1061D00097EC30F02F4A302A30BEE5D7305005E139
:1061E000080E2F5CD8B01200DED7120088EC30F019
:1061F000000E346E000E336E000E366E000E356EDD
:10620000D8903534D96E3634DA6E010ED926000EA8
:10621000DA22DECF2AF0DDCF2BF0CFEC30F0D890B1
:106220003334D96E3434DA6E010ED926000EDA22F8
:10623000DECF2AF0DDCF2BF0CFEC30F08DEC30F05C
:106240000D0E326E2D0E316ED80EE82EFED7312E89
:10625000FCD7322EFAD7354A362A36BED1D7365039
:1062600004E10A0E355CD8A0CBD7334A342A34BEB9
:10627000C3D73450BDE10A0E335CD8B0B9D7BCD710
:020000040020DA
:08000000FFFFFFFFFFFFFFFF00
:020000040030CA
:0E00000000255F3FFFD385FF0FC00FE00F40CC
:00000001FF
